:020000040000fa
:10000000f0ff0320c5040000b7080000b908000095
:10001000bd080000bf080000c1080000000000008b
:10002000000000000000000000000000b508000013
:10003000bb08000000000000b5080000b508000083
:10004000b5080000b5080000b5080000b5080000bc
:10005000b5080000b5080000b5080000b5080000ac
:10006000b5080000b5080000b50800003d08000014
:10007000b5080000b5080000b5080000b50800008c
:10008000b5080000b5080000b5080000b50800007c
:10009000b5080000b5080000b5080000b50800006c
:1000a000b5080000b5080000b5080000b50800005c
:1000b000b5080000b5080000b5080000b50800004c
:1000c000b5080000b5080000b5080000b50800003c
:1000d000b5080000b5080000b5080000b50800002c
:1000e000b5080000b5080000000000000000000096
:1000f00000000000b5080000b5080000b5080000c9
:10010000b5080000b5080000b5080000b5080000fb
:10011000b5080000b5080000b5080000b5080000eb
:10012000b5080000b5080000b5080000b5080000db
:10013000b5080000b5080000b5080000b5080000cb
:10014000b5080000b5080000b5080000b5080000bb
:10015000b5080000b5080000850200008502000017
:100160008502000085020000b5080000b508000007
:10017000b5080000b5080000b5080000b50800008b
:10018000b5080000b5080000b5080000b50800007b
:10019000b5080000b5080000b5080000b50800006b
:1001a000b5080000b5080000b5080000b50800005b
:1001b000b5080000b5080000b5080000b50800004b
:1001c000b5080000b5080000b5080000b50800003b
:1001d000b5080000b5080000b5080000b50800002b
:1001e000b5080000b5080000b5080000b50800001b
:1001f000b5080000b5080000b5080000b50800000b
:10020000b5080000b5080000b5080000b5080000fa
:10021000b5080000b5080000b5080000b5080000ea
:10022000b5080000b5080000b5080000b5080000da
:10023000b5080000b5080000b5080000b5080000ca
:10024000b5080000b5080000b5080000b5080000ba
:10025000b5080000b5080000b5080000b5080000aa
:04026000b5080000dd
:020000040000fa
:10026400f8b500bff8bc08bc9e467047e50700001f
:10027400f8b500bff8bc08bc9e467047c107000033
:020000040000fa
:1002840008b5574b9b7d002b53d0554a536803f058
:100294000703127e12f0040f5bd0514a906a514951
:1002a4004a69c9688a4254d2002b43d14d4b5968dc
:1002b400885401325a614a4b1b7e13f0010f18d047
:1002c400474b01221a75474a93699268934258d260
:1002d400444a1168c85c4249886201339361414bc6
:1002e4009a699b689a4261d03e4b5a69db689a428c
:1002f40069d03b4b1b7e13f0020f14d03a4b1b7892
:10030400bbb1384b5a69db689a420fd1354b002296
:100314001a7733490720087533490a701b6a43b1b9
:10032400304a506a9847304b1b7813b12c4b022249
:100334009a7508bd2b4b596821f8120001325a6195
:10034400274b1b7e13f0010fd3d0254b01221a75c6
:1003540009e0234a127e12f0010fcad0204a01217b
:100364001175002bafd01f4a93699268934212d241
:100374001c4a116831f813001949886201339361ea
:10038400ade7184b1b6923b3154aff219162013b6a
:10039400144a1361a3e7134b1b69d3b1104a4ff6f8
:1003a400ff719162013b0f4a136198e70d4b1b6982
:1003b400002b99d10c4b01221a70094b1b7e13f0b0
:1003c400020f9ed1b2e7064b01229a7504221a75d8
:1003d4008fe7044b9a699b689a4285d1eae700bf8c
:0c03e4000008004350000020ac00002086
:020000040000fa
:1003f0002d4b00221a7403f500632c4a9a621a46a8
:10040000536813f0100ffbd1294b4222c3f884200c
:100410001a46d2f8843013f0400ffad0254b002250
:100420009a6377225a631a46d36b13f0040ffbd1f9
:10043000204b022283f830201a46d36b13f0020fb0
:10044000fbd11c4a136c03f00303032bfad11a4ba4
:1004500001225a711a46d37813f0010ffbd0144bc6
:10046000164a1a621a46536813f0040ffbd1104b58
:10047000134a5a621a46536813f0080ffbd10c4b0b
:100480004122c3f810211a46d2f8103113f0400f60
:10049000fad0094b6ff07f421a6140f2ff725a6145
:1004a00004221a62704700bf0014004006013000a9
:1004b000001c00400010004000080040070101003f
:0404c000070102002e
:020000040000fa
:1004c40008b5194b9847194b9847eff3108172b64a
:1004d400174ad2f8883043f47003c2f88830bff367
:1004e4004f8fbff36f8f01b962b6124a936823f03e
:1004f400010393601346da6812f0010ffbd10d4b30
:1005040024225a6001229a6000f01ef80a4b23f05c
:100514007f03074a9360094b9847094b9847094b57
:10052400984700f0bff9fee7c3080000c3080000c5
:1005340000ed00e000600041000000001d07000025
:08054400c3080000c308000019
:020000040000fa
:10054c001e4b1f4a9342f0b438bf002103d203f86c
:10055c00011b9342fbd11b4ad2e9000150ea010373
:10056c004ff0000610d09468034602f10c076cb9ea
:10057c0021b1014403f8016b9942fbd13a46d2e90f
:10058c00000150ea0103eed1f0bc704759b101f102
:10059c000c030c38801a1a443b461c1813f8015be8
:1005ac0025709342f9d111f0030318bf012303eb1b
:1005bc00910107eb81073a46e1e700bf00000020fc
:0805cc0000000020bc06000045
:020000040000fa
:1005d4001c4b08221a601a61002283f8422083f817
:1005e400432083f8472083f8312083f833204ff0e9
:1005f4000041c3f89010012183f8d01083f8d12072
:10060400062083f8df0083f8b82083f8bf204ff476
:100614008020c3f800018030c3f8100183f844112e
:1006240083f8451183f84611052183f8471183f8af
:100634005221222183f8321183f8331183f83921ae
:08064400704700bf0080004177
:020000040000fa
:10064c00194ad36823f4e0631b041b0c43f0bf630b
:10065c0043f40033d360bff35f8f62b6134be021da
:10066c0083f80b134ff40060186083f84613402096
:10067c00986083f847138020986083f848134ff4f0
:10068c008070986083f849134ff400719960536a35
:10069c0043f480235362536943f010035361536a4c
:1006ac0043f400335362704700ed00e000e100e0da
:020000040000fa
:1006bc007c0000201c00000000000000ac000020aa
:1006cc000100000000000000500000202c00000081
:1006dc0000000000980000200c000000000000004a
:1006ec00a400002004000000000000000000002016
:1006fc005000000000000000a800002004000000d2
:10070c000000000000000000000000002222222255
:020000040000fa
:10071c000e4a38b5002313600d4a0e4c13600e4a76
:10072c000e4d13600e4a13600e4a13600e4a53624c
:10073c0013610123936000f0bff800f0bdf8ac42e8
:10074c0000d338bd54f8043b9847f8e7a8000020c4
:10075c000c00002070020000080000207402000051
:0c076c000000002004000020100000200d
:020000040000fa
:10077800104b01221a801a46136913f0010ffbd19e
:100788000c4b48f280621a801a46136913f4004f22
:10079800fbd1084b00221a621a46136913f0200f86
:1007a800fbd1044b00225a621a46136913f0400f1a
:0807b800fbd170470024004052
:020000040000fa
:1007c00010b5054c227832b9044b13b10448aff38d
:1007d00000800123237010bd7c0000200000000079
:1007e0000000000008b5034b1bb103490348aff3f9
:1007f000008008bd00000000800000200000000014
:020000040000fa
:100800000b4b00221a621a779a60da60094b4ff498
:1008100008325a601a46d369002bfcd1054b1d22c1
:100820001a73054a1a601a46d369002bfcd1704727
:0c08300050000020000800430e003000c3
:020000040000fa
:10083c0008b5074b988980b2064a50604cf2ff31dc
:10084c0099819b8913680bb19168984708bd00bfcb
:08085c00002400409800002078
:020000040000fa
:1008640008b500f00ff8fff7b3fefff7bffd00f087
:1008740011f800f01cf8fff7c1fffff77bfffff74b
:04088400e3fe08bdca
:020000040000fa
:10088800024b40f204521a80704700bf00400041fa
:020000040000fa
:10089800024b4ff48022c3f81821704700800041b2
:020000040000fa
:0a08a80008b50020fff7dafffee7b5
:020000040000fa
:0208b20070478d
:020000040000fa
:0208b400fee75d
:020000040000fa
:0208b600fee75b
:020000040000fa
:0208b800fee759
:020000040000fa
:0208ba00fee757
:020000040000fa
:0208bc00fee755
:020000040000fa
:0208be00fee753
:020000040000fa
:0208c000fee751
:020000040000fa
:0208c20070477d
:020000040000fa
:0208c40070477b
:020000040000fa
:0200000400807a
:044000003912003c35
:020000040000fa
:0200000400807a
:044004008000a82a66
:020000040000fa
:0200000400807a
:04400800ffffffffb8
:00000001FF
