:020000040000fa
:10000000f0ff03206d2a0000ff30000027320000bf
:10001000eb34000077360000c73600000000000017
:10002000000000000000000000000000532e00004f
:100030005b33000000000000532e0000532e000030
:10004000532e0000532e0000532e0000532e0000ac
:10005000532e0000532e0000532e0000532e00009c
:10006000532e0000532e0000532e0000ed340000ec
:10007000532e0000532e0000532e0000532e00007c
:10008000532e0000532e0000532e0000532e00006c
:10009000532e0000532e0000532e0000532e00005c
:1000a000532e0000532e0000532e0000532e00004c
:1000b000532e0000532e0000532e0000532e00003c
:1000c000532e0000532e0000532e0000532e00002c
:1000d000532e0000532e0000532e0000532e00001c
:1000e000532e0000532e000000000000000000000e
:1000f00000000000532e0000532e0000532e00007d
:10010000532e0000532e0000532e0000532e0000eb
:10011000532e0000532e0000532e0000532e0000db
:10012000532e0000532e0000532e0000532e0000cb
:10013000532e0000532e0000532e0000532e0000bb
:10014000532e0000532e0000532e0000532e0000ab
:10015000532e0000532e0000d5210000d5210000b1
:10016000d5210000d5210000532e0000532e0000a1
:10017000532e0000532e0000532e0000532e00007b
:10018000532e0000532e0000532e0000532e00006b
:10019000532e0000532e0000532e0000532e00005b
:1001a000532e0000532e0000532e0000532e00004b
:1001b000532e0000532e0000532e0000532e00003b
:1001c000532e0000532e0000532e0000532e00002b
:1001d000532e0000532e0000532e0000532e00001b
:1001e000532e0000532e0000532e0000532e00000b
:1001f000532e0000532e0000532e0000532e0000fb
:10020000532e0000532e0000532e0000532e0000ea
:10021000532e0000532e0000532e0000532e0000da
:10022000532e0000532e0000532e0000532e0000ca
:10023000532e0000532e0000532e0000532e0000ba
:10024000532e0000532e0000532e0000532e0000aa
:10025000532e0000532e0000532e0000532e00009a
:04026000532e000019
:020000040000fa
:10026400f8b500bff8bc08bc9e4670474d3200008c
:10027400f8b500bff8bc08bc9e46704729320000a0
:020000040000fa
:080284009018000001000000c9
:020000040000fa
:10028c0080b485b000aff860b9607a603b60124a08
:10029c00fb681360104abb6853600f4a7b6893601d
:1002ac000d4a3b68d3600c4abb6913610a4afb696f
:1002bc005361094a3b6a9361074a7b6ad361064ad8
:1002cc00bb6a1362044afb6a536201231846143753
:1002dc00bd465df8047b70470000002080b584b0fb
:1002ec0000af786000f03ef8422000f02cf9034695
:1002fc00fb73fb7b122b05d0174b51221749184867
:10030c0003f02af900f042f8786800f047f8002171
:10031c000e2000f003f900210f2000f0fff80c2054
:10032c0000f011f90346bb73bb7b43f00303dbb254
:10033c0019460c2000f0f2f80421262000f0eef80b
:10034c000021112000f06cf800f0e0f800231846b2
:10035c001037bd4680bd00bf6c2c0000fc2b00008c
:10036c00282c000080b500af074bdb699847064b83
:10037c005b6a32209847044b1b6a9847024b5b6ab6
:10038c003220984700bf80bd0000002080b500af30
:10039c008021012000f0c2f800bf80bdf0b585b00f
:1003ac0000af78601c4a7b6853637b684ff0000495
:1003bc005e0bdd04194a4ff000032846314603f06a
:1003cc0035f803460c46c7e90234d7e902124ff060
:1003dc0000034ff000040b0c43ea0243140cdbb295
:1003ec001946062000f09af8d7e902124ff00003e4
:1003fc004ff000040b0a43ea0263140adbb21946fd
:10040c00072000f08bf83b7a1946082000f086f89c
:10041c0000bf1437bd46f0bd000000200048e801c5
:10042c0080b582b000af786039603b68002b0ed18c
:10043c007b680e2b01d90e237b607b68dbb243f00b
:10044c007003dbb21946092000f068f829e07b68dc
:10045c00112b0fd97b68142b01d914237b607b687b
:10046c00033b7b6087214d2000f058f88c2000f076
:10047c001cf80be07b68012b01d802237b608421e4
:10048c004d2000f04bf8642000f00ff87b68dbb2d5
:10049c00023bdbb263f07f03dbb21946092000f0ac
:1004ac003df800bf0837bd4680bd80b584b000afb5
:1004bc000346fb711b23fb73fb79782b09d8fb7963
:1004cc002d3b114a82fb03125210db17d31afb731c
:1004dc000be0fb79f02b08d8fb791e330a4a82fb20
:1004ec0003129210db17d31afb73fb7b03f01f0371
:1004fc00dbb243f02003dbb219460b2000f00ef800
:10050c0000bf1037bd4680bd6766666680b500af1c
:10051c008121012000f002f800bf80bd80b582b0bf
:10052c0000af03460a46fb711346bb71fb7963f0bf
:10053c007f03dbb2ba791146184600f016f800bffb
:10054c000837bd4680bd80b582b000af0346fb7155
:10055c00fb7903f07f03dbb20021184600f005f8ad
:10056c00034618460837bd4680bd90b585b000af30
:10057c0003460a46fb711346bb7100233b720023f2
:10058c007b720f4b5b6998470d4b1c68fb793b7377
:10059c00bb797b7307f1080207f10c0002230221df
:1005ac00a04700bf064bdb6898470346002bf9d1e8
:1005bc00034b9b6998477b7a18461437bd4690bd10
:1005cc000000002080b582b000af0346fb7100f044
:1005dc004bf80346002b01d0002312e0fff796ffe7
:1005ec00fb79002b02d000f0fbfb01e000f0e2fbfa
:1005fc0000210d20fff792ff00212220fff78eff34
:10060c00012318460837bd4680bd80b582b000afc7
:10061c000346fb71fb79002b07d0124b9b6a002b16
:10062c0003d040214020fff779ff83210120fff701
:10063c0075fffb7983f00103dbb2002b0cd000bffc
:10064c001220fff780ff034603f00803002bf7d0be
:10065c0008211220fff762ff012318460837bd4618
:10066c0080bd00bf0000002080b500af0120fff767
:10067c006aff034603f00303032b01d101230ce0b3
:10068c001220fff760ff034603f00803002b03d092
:10069c0008211220fff742ff0023184680bd80b5c9
:1006ac0084b000af0346fb710023fb601220fff700
:1006bc004aff0346bb60fb79002b07d000f090fb90
:1006cc00fb7919462220fff729ff01e000f072fbad
:1006dc00bb68dbb219461220fff720ffbb6803f0a2
:1006ec004003002b22d0bb6803f02003002b1dd14c
:1006fc00184b00229a63174b93f83030002b05d01f
:10070c002220fff720ff0346fb6004e01320fff7d5
:10071c001aff0346fb601020fff715ff034619462e
:10072c000d20fff7fbfefff7f1fe0de00120fff7b8
:10073c000aff0346862b07d000210d20fff7eefea3
:10074c0086210120fff7eafefb6818461037bd46ec
:10075c0080bd00bf0000002080b500af1a20fff75d
:10076c00f2fe03461946054b5b6b054a934201d8d2
:10077c00a42300e09d23cb1a184680bd0000002066
:10078c003fdd4a1f98b500af1920fff7dcfe03468a
:10079c005bb2184602f0ccfe4ff00002074b01f0a2
:1007ac0061fe03460c461846214602f0c9fc03467e
:1007bc0007ee903ab0ee670a98bd00bf0000d03f3c
:1007cc0080b52ded028b84b000af0023fb60282098
:1007dc00fff7b9fe034603f00703fb60fb681b023f
:1007ec00fb602920fff7affe03461a46fb68134453
:1007fc00fb60fb681b02fb602a20fff7a4fe03468c
:10080c001a46fb681344fb602820fff79cfe034646
:10081c0003f00803002b03d0fb68a3f50023fb6057
:10082c00144bbb60fb6807ee903af8eee77a9fed4d
:10083c00127a27ee877ad7ed027a87ee278a00f0b4
:10084c002df907ee900ab8ee677adfed0c6ac7ee69
:10085c00267a68ee277ac7ed017ad7ed017afcee9d
:10086c00e77a17ee903a18461037bd46bdec028b6e
:10087c0080bd00bf0024f44b0000804b0024f448e2
:10088c0080b500af1b20fff75efe03461946054bf3
:10089c005b6b054a934201d8a42300e09d23cb1a3d
:1008ac00184680bd000000203fdd4a1f80b584b093
:1008bc0000af786039602220fff745fe0346bb602d
:1008cc00ba683b681344ff2b03d9bb68c3f1ff0321
:1008dc003b600023fb600ae07a68fb6813441b78da
:1008ec0019460020fff71afefb680133fb60fa681b
:1008fc003b689a42f0d3bb68dab23b68dbb2134474
:10090c00dbb219462220fff709fe3b681846103768
:10091c00bd4680bd80b500af1320fff714fe034623
:10092c001a46024b9b6bd31a184680bd0000002060
:10093c0080b500affff7eeff0346002b01d1ff237c
:10094c0008e0054b9b6b0133034a93630020fff7d0
:10095c00fafd0346184680bd0000002080b582b029
:10096c0000affff7d7ff0346002b01d1ff230fe0a9
:10097c000d20fff7e8fd0346fb710020fff7e3fdb8
:10098c000346bb71fb7919460d20fff7c7fdbb79f8
:10099c0018460837bd4680bd80b483b000af786080
:1009ac00044a7b68d36200bf0c37bd465df8047bfc
:1009bc00704700bf0000002080b483b000af7860a7
:1009cc00044a7b68936200bf0c37bd465df8047b1c
:1009dc00704700bf0000002080b582b000af034616
:1009ec00fb7100214020fff799fdfb79002b07d00c
:1009fc0000f0f6f9fb7919462220fff78ffd01e094
:100a0c0000f0d8f985210120fff788fd00bf0837d9
:100a1c00bd4680bd80b500af1e20fff794fd034698
:100a2c001b09dbb2184680bd80b582b000af786080
:100a3c007b68052b02d806237b6004e07b680c2bbb
:100a4c0001d90c237b607b68062b08d1c521312092
:100a5c00fff764fd0c213720fff760fd07e0c32191
:100a6c003120fff75bfd0a213720fff757fd1e20d1
:100a7c00fff769fd034603f00f03dab27b68dbb2c4
:100a8c001b01dbb21343dbb219461e20fff746fdf8
:100a9c0000f0baf800bf0837bd4680bd80b582b003
:100aac0000af1d20fff74ffd03461b09fb71fb79bf
:100abc00092b32d801a252f823f000bff10a000032
:100acc00f70a0000fd0a0000030b0000090b0000f0
:100adc000f0b0000150b00001b0b00001f0b000080
:100aec00230b000041f6786319e042f6a00316e0f0
:100afc0043f6f04313e045f2401310e047f612239f
:100b0c000de04af2e4230ae04ff2244307e0064bdf
:100b1c0005e0064b03e0064b01e04ff0ff331846af
:100b2c000837bd4680bd00bf48e8010090d00300e7
:100b3c0020a1070080b584b000af78600023fb6073
:100b4c007b6841f67862934202d80023fb603fe059
:100b5c007b6842f6a002934202d80123fb6037e087
:100b6c007b6843f6f042934202d80223fb602fe0ed
:100b7c007b6845f24012934202d80323fb6027e0c6
:100b8c007b6847f61222934202d80423fb601fe0d5
:100b9c007b684af2e422934202d80523fb6017e0fb
:100bac007b684ff22442934202d80623fb600fe08d
:100bbc007b68134a934202d80723fb6008e07b68ea
:100bcc00104a934202d80823fb6001e00923fb6022
:100bdc001d20fff7b8fc034603f00f03dab2fb68e5
:100bec00dbb21b01dbb21343dbb219461d20fff74e
:100bfc0095fc00f009f800bf1037bd4680bd00bf62
:100c0c0048e8010090d0030090b583b000affff727
:100c1c0045ff0446fff7fefe034624fa03f34ff4a8
:100c2c007a72b2fbf3f37b607b68102b8cbf0123d1
:100c3c000023fb702620fff786fc0346bb70fb7875
:100c4c00002bbb7819462620fff768fc00bf0c3739
:100c5c00bd4690bd80b584b000af78607b68042b36
:100c6c0002d805237b6004e07b68082b01d908239c
:100c7c007b607b68043bfb601d20fff764fc034634
:100c8c005bb223f00e035ab2fb685b005bb21343fa
:100c9c005bb2dbb219461d20fff740fc00bf1037da
:100cac00bd4680bd80b582b000af78607b681b0a02
:100cbc00dbb219462020fff731fc7b68dbb219460a
:100ccc002120fff72bfc00bf0837bd4680bd80b547
:100cdc0082b000af78607b68dbb219463920fff731
:100cec001dfc00bf0837bd4680bd80b500af1e207f
:100cfc00fff729fc034643f00403dbb219461e2020
:100d0c00fff70cfc00bf80bd80b500af1e20fff7c5
:100d1c001afc034623f00403dbb219461e20fff72e
:100d2c00fdfb00bf80bd80b500af66213320fff70f
:100d3c00f5fb19213b20fff7f1fb00bf80bd80b50f
:100d4c0000af27213320fff7e9fb1d213b20fff7e4
:100d5c00e5fb00bf80bd80b582b000af0346fb71e0
:100d6c00fb79062b01d90623fb71fff7cffbfb792f
:100d7c00002b04d104212620fff7d0fb16e0002124
:100d8c002620fff7cbfb03210c20fff7c7fb0c2021
:100d9c00fff7d9fb03465ab2fb795b015bb21343f5
:100dac005bb2dbb219460c20fff7b8fb00bf08376b
:100dbc00bd4680bd80b500af084b002283f83020c3
:100dcc001d20fff7c0fb034623f00103dbb21946dd
:100ddc001d20fff7a3fb00bf80bd00bf000000205b
:100dec0080b500af084b012283f830201d20fff79f
:100dfc00aafb034643f00103dbb219461d20fff7a3
:100e0c008dfb00bf80bd00bf0000002080b582b00c
:100e1c0000af1220fff797fb03467b607b68dbb2c9
:100e2c0019461220fff77afb7b6803f02003002b96
:100e3c0033d17b6803f04003002b22d0194b0022e6
:100e4c009a63184b93f83030002b04d02220fff714
:100e5c007afb034603e01320fff775fb03463b6068
:100e6c001020fff770fb034619460d20fff756fbc9
:100e7c000c4bdb6a002b10d00a4bdb6a38689847a6
:100e8c000be07b6803f00803002b06d0054b9b6a34
:100e9c00002b02d0034b9b6a984700bf0837bd4616
:080eac0080bd00bf0000002022
:020000040000fa
:040eb4000020704763
:020000040000fa
:100eb8002de9f04f2ded028b97b092ed007b0e934c
:100ec8000b680693d1e9016307930b690f900b91a7
:100ed8001493cd680022002351ec170b8ded027b93
:100ee80002f054fa48b9069b580739d4069b13f008
:100ef80008030c9336d0202306e0dde9022181f0b7
:100f08000043cde902232d232b70079b03f1ff3b00
:100f180001230c93dde9022121f000430c996918a3
:100f28000d914d4900208b4208bf82421dd10e9b76
:100f38000d98413b192b94bf4849494902f03afca6
:100f4800474802f0fdfb069b00930246079b0f985b
:100f5800294601f00ffe17b0bdec028bbde8f08ffb
:100f68002b23d1e7ddf81cb0d4e7994208bf9042a3
:100f78000ad20e9b0d98413b192b94bf39493a4927
:100f880002f018fc3848dce700220023dde9020102
:100f980002f034fa9fed2e7b8ded047b68b30024bc
:100fa8000e9802f0edfb002ec3b20a93c0f2d7816f
:100fb800672b61d1002e08bf0126231d02dbb44236
:100fc800c0f2c681652768e0cde9048901340022b2
:100fd800264bdde9040101f047fadde902238046ea
:100fe800894602f0b7f90028eed00027dff88080a4
:100ff800dff880a04ff000091ee00446e7e744450b
:1010080011da87b94a465346dde9020101f02cfaa4
:101018004a46cde902015346dde9040101f024fa0c
:10102800cde904010127dde9040100220f4b00f09e
:10103800ebffcde90401013cdde90423dde9020110
:1010480002f0a4f90028dad1aae700bfaff30080c4
:10105800000000000000f03f0000f07f683700004b
:101068006c3700007037000074370000000024401f
:10107800d4feffff000050430a9f662f06f10106c9
:101088000bd1002c04da9fedba7b8ded047b002494
:101098000a9b672b18bf361966279ded027bdde991
:1010a80004898ded087b4ff0000a42464b46dde986
:1010b800080100f0a9ff41ec100b01f069fb51ecad
:1010c800100bb0ee408af0ee608a02f015f8b0ee30
:1010d800480af0ee680a089b1093099b159083f064
:1010e8000043119349ec118b9ded102b02f0cef9c2
:1010f80053ec102b83f000430993404649460022e5
:101108009d4b8ded080a00f07fff0af1010a564554
:1011180080468946c9d10022984b01f0a5f980463e
:10112800894602460b46dde9080102f02ff948b965
:1011380042464b46dde9080102f060f930b1159be3
:10114800d90703d44ff000084ff0000942464b4638
:10115800dde9020100f038fe0022cde90201864bec
:10116800dde9040101f080f9dde90223cde9080198
:1011780002f0b4f800286dd0662f04f101046dd197
:101188000136a146a9eb06031093069b0c9e4ff06f
:10119800000803f01003cdf810801593109b9945b3
:1011a800b24604d00b9b1b69053bb3425cd8049b39
:1011b80033b9069bda0642bf2e2305f80a300136fa
:1011c8000022652f05eb0600aa5529d1149b149916
:1011d800013b9442ea54c1f1030ebcbf64420122b0
:1011e8000a21002c40f0a5800eeb030cbcf1000f87
:1011f80000f39f80002a03f1ff3114bf2d222b2218
:101208006a540e9a413a023b192a98bf45279e42d2
:1012180005eb0301ef54abf1020b01da02f0cafa55
:10122800069b03f00303022b12d1bbf1000f0fdd65
:10123800284602f085fa05eb0b030c9a824240f32c
:1012480083805a4630210d9802f072fa00230793e2
:10125800284676e69ded047b8ded087b652f14bf4f
:10126800a1464ff000098de7dde90823dde9020119
:1012780000f0cafe41ec100b01f08afa51ec100b99
:10128800b0ee408af0ee608a01f036ff159b03430a
:101298002ad10a9b672b27d1b9f1000f31da08f15f
:1012a800010a029b1293039bb0ee480af0ee680a0b
:1012b80083f0004313939ded081b9ded122b02f064
:1012c800e5f853ec102b83f000430393dde90801a4
:1012d8000022294b8ded020a00f096fe09f1ff3934
:1012e800cde90801d04659e7049b53b9b9f1000f7d
:1012f80007da2e2305f80a30012301360bf1ff3bec
:1013080004933246ab19c24605e04ff0300103f8aa
:10131800011b0af1ff3abaf1000ff6d10bf1ff33c6
:101328000136a3eb080b4644a844303008f8020005
:10133800b7e7b4fbf1fc013b01fb1c443034ec542f
:101348000bf1ff3b64464ce72a5c1a54013874e7fa
:10135800002cbff6a1ae66278fe606262de60a9b6f
:10136800672bfad01f46062687e600bfaff300803a
:10137800000000000000f03f00002440000014407e
:020000040000fa
:101388002de9f04f93b01d460b680593d2e900abe9
:101398004b680c938b6808930b690f900d93cc687e
:1013a800002200235046594601f0f0ff40b9059b42
:1013b8005e0733d4059b13f0080731d0202303e0e0
:1013c8008bf000439b462d232370089b01275e1e4c
:1013d800dff8f4922bf000434ff000084b45a5f1dd
:1013e800410108bfc24504eb070009911ad1099bc6
:1013f800192b04eb070094bfad49ae4902f0daf9a6
:10140800ac4802f09df9059b00930246089b0f9893
:10141800214601f0affb13b0bde8f08f2b23d3e7d3
:10142800089ed5e7994508bfd04508d2099b192bd6
:1014380094bfa149a14902f0bdf9a048e1e73022d3
:101448000270099a7b1c1a2a34bf58227822e25467
:1014580050460022002359460237023e01f0ceffd3
:10146800002800f078819fed907b8ded027b0025b0
:101478009ded027b0c9b8ded0a7bcde906ab002b25
:10148800acbf99464ff018094ff00008dde90a2370
:10149800dde9060100f0b8fd41ec100b01f078f928
:1014a800dde90a2351ec100b8ded100b00f0dcff89
:1014b80002460b46dde9060102f088f9804bcde9ca
:1014c80006010022dde90a0100f0ceff08f1010360
:1014d8000e930c9b002bcde90a0106da00220023ab
:1014e800dde9060101f08aff28b9c14500f3398119
:1014f80009f101030e930022724bdde90a0100f0a5
:10150800b3ff8046894602460b46dde9060101f035
:101518003dff60b942464b46dde9060101f06eff2a
:1015280048b1dde9100101f0e7fdc00703d44ff031
:1015380000084ff0000942464b465046594600f015
:1015480043fccde90601dde9062121f000435e49af
:1015580000208b4208bf82423ff449af4ff0000998
:10156800b846cb46ca460d9b053b434533dddde90e
:101578000223dde9060100f047fd41ec100b01f004
:1015880007f951ec100b8ded0a0b01f0b5fd0028a1
:1015980040f0ea80baf1000f00f0e68009f1010995
:1015a800dde90223dde90a0100f05eff02460b4691
:1015b800dde9060102f00af9414bcde906010022f6
:1015c800dde9020100f050ff0e9b0af1010a5345c4
:1015d800cde90201c7d1bbf1000f1dd104eb08030f
:1015e800b9f1000f00f004810c9a002a40f3008141
:1015f800059ad10700f1fc802e221a7009eb080227
:101608002244302103f8011f9342fbd1c8446feafa
:10161800090908f101084e440d9b0d990022013b70
:10162800954204f80820c1f1020ee25404eb0800c8
:10163800bcbf6d4201220a21002d40f0cb800eeb89
:10164800030cbcf1010f00f0c580002a03f1ff3143
:1016580014bf2d222b226254099a023b1a2a34bf46
:1016680050227022984504eb0301e25401da02f09b
:10167800a1f8059b03f00303022b12d1b51e002d20
:101688000fdd204602f05cf8013e2044031b9f4218
:1016980040f3aa802a463021e01902f049f80023d5
:1016a80008932046ade600bf000000000000f03fb0
:1016b800583700005c3700006037000064370000ce
:1016c8000000b03f000020400000f07fcde9028913
:1016d8000135dde902231046194600f075fb804606
:1016e800894602460b465046594601f04ffe0028ef
:1016f800ecd0dff820914ff00008dde902235046d6
:10170800594601f043fe00283ff4b2ae0022404b98
:10171800dde9020100f0a8fe0022002301f06efec0
:1017280078b142464b46dde9020100f09dfe424693
:10173800cde902014b465046594600f095fe8246d7
:101748008b46dde902010022314b00f08dfe013da0
:10175800cde90201d1e79fed2c7b05468ded027b9b
:10176800b7e7ddf8388091e6bbf1000f0ad1baf18e
:10177800000f07d02e2304f80830013e08f10108b5
:101788004ff0010b434604eb08014a4604e04ff0d2
:10179800300c01f801cb013a002af8d1099a09283e
:1017a80008f1010806f1ff36d4bf30305730192a46
:1017b800c8444b44a6eb090608d840f02002613a19
:1017c800192a03d8109301f0e2ff109be0544ff060
:1017d8000009e5e6b5fbf1fc013b01fb1c55303582
:1017e800e554013e654627e710f8013983554de772
:1017f800059ad2067ff510af2e2208f101081a705b
:101808000ae700bfaff30080000000000000f03fcf
:081818000000e03f0000504316
:020000040000fa
:101820002de9f04fadb00027dff8e4a203910646a2
:101830001546b8464ff0ff3903990b78002b00f09e
:10184000f9800cabcde907890a938023cdf8248079
:101850000b9300240b5d0bb1252b26d134b122460e
:10186000304601f05dfd039b23440393039b1a78ec
:10187000252a40f0d78003f1010bcdf80cb0039876
:1018800003782b2b1ad025d8202b1bd0232b1dd02f
:101890002a2b27d001f0a4fc0990039b1a78303a38
:1018a000092a2ed801330393f7e70134d2e7079bc7
:1018b00043f00103013007930390e0e7079b43f0f7
:1018c0000403f7e7079b43f00803f3e7079b43f0a4
:1018d0001003efe72d2bead0302bd9d1079b43f033
:1018e0000203e7e72b681a1d1b682a600130002bf2
:1018f0000390099305da079a5b4282f0010207928e
:101900000993079bda0744bf23f002030793039b65
:101910001a782e2a0dd1581ccdf8208003905a78c1
:101920002a2a25d1023303932b681a1d1b682a60cb
:10193000089303a801f04afd039b0190187801f079
:1019400023ff6928019979d032dc632800f0c68032
:1019500019dc252800f0d080612853d025238df88c
:101960001030cdf80cb0cdf81c80cde90898c0e05f
:1019700001f036fc0890039b1a78303a092ad8d82f
:1019800001330393f7e7642858d06728e6dc2a463a
:1019900004a801f095fd002800f09c80039b5a1cd0
:1019a00003921b7804aa07a93046fff785fa38e0ae
:1019b000702873d015dc6e2800f087806f28cdd199
:1019c0002b46002204a801f001f8002800f08280d4
:1019d000039b04aa013307a93046039301f000fae0
:1019e0001fe075283ad0782848d07328b6d18029ce
:1019f00070d1039b2a6801330393131d2b60126877
:101a000000235be02a4604a801f05afd002861d0bb
:101a1000039b5a1c03921b7804aa07a93046fff7c0
:101a2000b3fc04443c44a7426edd384b4f221a609d
:101a30004ff0ff3738462db0bde8f08f2b4601221e
:101a400004a800f0c3ff002844d0039b04aa01337c
:101a500007a93046039300f065ffe2e72b4600221a
:101a600004a800f0b3ff002834d0039b04aa01337c
:101a700007a93046039301f017fbd2e72b4600225b
:101a800004a800f0a3ff28b3039b5a1c03921b7801
:101a900004aa07a9304600f083fdc2e72b460022c6
:101aa000f02104a800f092ffa0b1039b013303933f
:101ab000dde90423134306d10023524607a930462b
:101ac00001f0c6faade77823e2e72b463a1904a8fd
:101ad00001f0d2f8039b01330393a3e78029f9d1e6
:101ae000039b013303932b681a1d1b682a608df832
:101af0001030012304aae1e78029ebd1039b8df884
:101b0000100001330393f4e7274695e61401002003
:041b10000a36000091
:020000040000fa
:101b14002de9f04f099f154604468e461e46002bbc
:101b240040f0cc808a42b2fa82fc4cd9bcf1000f5e
:101b34000bd0ccf1200801fa0cfe20fa08f802fac6
:101b44000cf548ea0e0e00fa0cf44fea15491ffa98
:101b540085f8befbf9fa210c09fb1ae30afb08fb22
:101b640041ea03439b452ad9eb180af1ff3004d21a
:101b74009b4502d9aaf102002b44a3eb0b03a4b2a8
:101b8400b3fbf9f209fb123302fb08f844ea0344fd
:101b9400a04516d92c1902f1ff3303d2a04501d96f
:101ba400931e2c44a4eb080443ea004027b124fa12
:101bb4000cf400233c607b603146bde8f08f504656
:101bc400dbe71346eee702b9ffdebcf1000f2ed1ce
:101bd4008b1a01264fea154eaab2b3fbfef8210c6c
:101be4000efb183308fb02f941ea0343994561d916
:101bf400eb1808f1ff3004d2994502d9a8f102008c
:101c04002b44a3eb0903a4b2b3fbfef10efb113387
:101c14004a4344ea0344a2424ed92c1901f1ff334a
:101c240003d2a24201d98b1e2c44a41abce7ccf1e6
:101c3400200e02fa0cf521fa0ef901fa0cf320fa3f
:101c44000efe4eea03034fea154800fa0cf4b9fb02
:101c5400f8f11ffa85fe08fb1192180c01fb0ef631
:101c640040ea0242964221d9aa1801f1ff3003d278
:101c7400964201d9881e2a44921b9bb2b2fbf8f902
:101c840008fb192209fb0efe43ea02439e450fd9c5
:101c9400eb1809f1ff3604d29e4502d9a9f10206d8
:101ca4002b44a3eb0e0346ea004693e70846e3e71a
:101cb4004e46f6e74046a4e70b46b6e78b4206d904
:101cc400002f7ed00026c7e90001304674e7b3fa3e
:101cd40083fcbcf1000f0fd18b4201d3824209d89f
:101ce400841a61eb030e0120002f6dd0c7e9004e6a
:101cf400002661e76046f7e7ccf1200e03fa0cf307
:101d040022fa0ef521fa0ef41d4301fa0cf320fa1f
:101d14000ef10b434fea154a00fa0cf6b4fbfaf93c
:101d24001ffa85f80afb19401c0c09fb08f144ea68
:101d34000044a14202fa0cf23fd92c1909f1ff30f8
:101d440004d2a14202d9a9f102002c44641a9bb224
:101d5400b4fbfaf90afb194409fb08f843ea044105
:101d640088452cd9691809f1ff3304d2884502d972
:101d7400a9f10203294443ea0040a1eb0801a0fbb6
:101d840002894945c2464c4602d306d1464504d28f
:101d9400b8eb020a69eb05040138afb1b6eb0a03ec
:101da40061eb040606fa0efe23fa0cf34eea030373
:101db40026fa0cf6c7e900369ae74846c6e74b46ca
:0c1dc400d9e73e463846f7e63e46f5e615
:020000040000fa
:101dd00030b591ea030f00f18280841a71eb030c95
:101de00005d2121953eb0c03001b71eb0c0140f2ee
:101df000000ccff6e07c1cea430f52d0bceb410f45
:101e00005fd90c0da4eb135e5ff0010c6cf31f5156
:101e10006cf31f53def1200c2ad303fa0cf54019a2
:101e200041f1000122fa0ef5401923fa0ef569413d
:101e300012fa0cf2cd0208d349085fea30005feadb
:101e4000320228bf42f001020134013c5fea500c2b
:101e500072f1004250f1000051eb04514ff40013b5
:101e600013eb410f38bf30bd090d0905002030bd0f
:101e7000bef1200ebef1200f1ed223fa0ef540193e
:101e800041f10001cef1200c124218bf012203fae9
:101e90000cf52a43cee711ea5c0f04bf00200021b5
:101ea00030bd1cea410f04bf01f00041002030bded
:101eb00001f00041002030bd21f4801101eb0451fc
:101ec00030bd004218bf41f00101bceb410f08bf1b
:101ed00030bd4ff0fe4141f47801002030bd83f069
:101ee0000043841a71eb030e07d28ef0004e001be4
:101ef00071eb0e01121953eb0e0340f2000ccff6fa
:101f0000e07c1cea430fc6d0bceb410f72d90c0d2c
:101f1000a4eb135ec90241ea5051c00241f00041f6
:101f2000db0243ea5253d20243f00043def1200cbd
:101f300041d312fa0cf522fa0ef203fa0cf542ea3a
:101f4000050218bf42f0010223fa0ef3801a9941ec
:101f5000e30ac4f30a0411f0404f03d418d0013c43
:101f600040004941013c23d44205c00a40ea4150a7
:101f7000c90a51eac3715fea500c72f1004250f194
:101f8000000051eb045130bd01002fd00020203c57
:101f90000029f9d0b1fa81fcdcf1200e11fa0cf124
:101fa00030fa0ef510fa0cf02943a4eb0c04d9e733
:101fb0000020d90730bdaef1200ebef1200f0dd2aa
:101fc000cef1200c03fa0cf533fa0ef32a4318bfb6
:101fd00043f00103c01a61f10001b9e721f00041ab
:101fe000c00a40ea4150c90a01eb045130bd00204b
:101ff000002130bd004218bf41f00101bceb410f90
:102000007ff467afbceb430f3ff463af30bd00bf5d
:020000040000fa
:102010002de9f04391ea030e0ef0004e40f2000766
:10202000cff6e07717ea41051ebfbd4217ea430528
:10203000bd4200f09f807f0d17ea135623ea4753f5
:1020400043f4801317ea115521ea475141f48011f6
:10205000ad1b05f2fd354fead31c1cf1010c4ff00e
:102060000047b7fbfcf77f01a2fb079c0024e3fbc2
:1020700007c4d9f100096ceb4c0ca0fb07620020ef
:10208000e1fb072000275feac628e0fb0987760d01
:1020900046eac226520df61900277a41e0fb0c628f
:1020a0005feac823e2fb09375fea585848eac628c6
:1020b000760d18eb070800214e41e2fb0c8602eb7f
:1020c000c020da02e6fb09215b0d43eac8235fea80
:1020d00058585b18002758eb0708e6fb0c38d1026c
:1020e000e8fb0917520d42eac3225b0dd219002703
:1020f0007b41e8fb0c2308ebc6265feac128e3fb23
:102100000987490d41eac221520dc91942f1000265
:10211000e3fb0c12470019eb08095ceb010c72ebb6
:10212000040453ebc62047eb56530026b3f5000fcb
:102130007641ad190236d6f1200910fa09f4f040c3
:1021400013fa09f21043f340e40f001943f10003be
:10215000b3f5001f24bf5b08013540f2fe77bd4296
:1021600004d24eea05511944bde8f0832d4224d52e
:10217000714626e0004218bf41f00101124218bf2b
:1021800043f00103b7eb410f2cbfb7eb430f1be04c
:10219000b7eb410f04bfb7eb430f15e017ea410f50
:1021a00004bf17ea430f0fe017ea410fe0d017ea28
:1021b000430f02d0b7eb430fdad04ef0fe4141f4ab
:1021c00070010020bde8f08340f20001c7f6f8710d
:0421d000f7e700bf6e
:020000040000fa
:1021d40008b5574b9b7d002b53d0554a536803f0e9
:1021e4000703127e12f0040f5bd0514a906a5149e2
:1021f4004a69c9688a4254d2002b43d14d4b59686d
:10220400885401325a614a4b1b7e13f0010f18d0d7
:10221400474b01221a75474a93699268934258d2f0
:10222400444a1168c85c4249886201339361414b56
:102234009a699b689a4261d03e4b5a69db689a421c
:1022440069d03b4b1b7e13f0020f14d03a4b1b7822
:10225400bbb1384b5a69db689a420fd1354b002227
:102264001a7733490720087533490a701b6a43b14a
:10227400304a506a9847304b1b7813b12c4b0222da
:102284009a7508bd2b4b596821f8120001325a6126
:10229400274b1b7e13f0010fd3d0254b01221a7557
:1022a40009e0234a127e12f0010fcad0204a01210c
:1022b4001175002bafd01f4a93699268934212d2d2
:1022c4001c4a116831f8130019498862013393617b
:1022d400ade7184b1b6923b3154aff219162013bfb
:1022e400144a1361a3e7134b1b69d3b1104a4ff689
:1022f400ff719162013b0f4a136198e70d4b1b6913
:10230400002b99d10c4b01221a70094b1b7e13f040
:10231400020f9ed1b2e7064b01229a7504221a7568
:102324008fe7044b9a699b689a4285d1eae700bf1c
:0c233400000800438c000020180100206d
:020000040000fa
:1023400030b40c4600294dd000284bd04649097fb7
:10235000002940f08680454d6d6805f00705012d88
:1023600046d0414908604a6000254d618d610d618c
:10237000a84208bf2c468c60aa4218bf1d460a46d8
:10238000cd6001211177394a127e12f0040f05d079
:10239000364a916a117e11f0040ffad1334a518bfb
:1023a00041f004015183117e41f080011176a54274
:1023b00002d92a1b2c490a612c4a526812f0070fd5
:1023c0002bd1294a9269a2421cd2007827498862ff
:1023d000013225498a61002b3bd0244b04229a7597
:1023e00001213be0002b38d0002aafd1002135e09d
:1023f00014b114f0010f31d1002bb2d013f0010f42
:10240000afd02be0184a1269002ae4d01749ff2008
:102410008862013a14490a61dde76408124a94604f
:102420001169490811616d08d5609269944206d915
:1024300000880e49886201320b498a61cbe7002986
:10244000c9d00a4a4ff6ff7090620139064a1161fd
:10245000c1e70121054b997500e00021084630bc19
:1024600070470021fae700bf8c00002000080043fd
:020000040000fa
:10247000f0b540f2ff7681ea030c16ea115e1ebf4a
:10248000b64516ea1355b54252d021ea465141f4f9
:102490008011a1fb024723ea465343f48013ae4464
:1024a000a0fb03650cf0004c36197d41a1fb0347ee
:1024b00047f10003a0fb0217f619654153f1000331
:1024c000094218bf46f0010640f2fe74b3f5007fe2
:1024d00013d2aef5806ea64523d24cea0331280311
:1024e00041ea155140ea16503203450872f10042a4
:1024f00050f1000051eb0e51f0bdaef2ff3ea6458b
:102500000fd24ceac321e80241ea555140ea565045
:10251000f202450872f1004250f1000051eb0e51f9
:10252000f0bd1eea0e0f2dd50cf000410020f0bdcd
:1025300016ea115f04bf01f000410020004218bffd
:1025400041f0010116ea135f04bf03f000430022cb
:10255000124218bf43f0010306ea1354b44218bff5
:10256000b64503d00cf000410020f0bd21f0004141
:1025700023f00043b1eb065f0cd8b3eb065f09d83c
:1025800041b13bb10cf0004141f0fe4141f470011a
:102590000020f0bd40f20001c7f6f8710020f0bd48
:020000040000fa
:1025a0002de9f04f89461946d9e90153d9f8008041
:1025b000d9f80ca0002d8bb0a8bf28f002088346e4
:1025c000b8bf012518f010009646d2e900670290c6
:1025d00051d056ea07024ed0981e18f00804039412
:1025e000d9f8104018bf00f1ff30401b013c4ff0fc
:1025f000000c049008f0020005900af804c0a1f154
:1026000041000690012c0add56ea070235d1002d63
:1026100033dc049a5019002801dd059a6abb029a3e
:1026200062b1dee9006756ea070207d00aeb04024e
:10263000023c02f8011c30220af80420039a1ab165
:10264000013c20220af80420d9f81020cdf800809f
:10265000013a121b0aeb0401584600f08ffadbf82e
:102660000430db0504d5d9f804309842b8bf1846c9
:102670000bb0bde8f08f1846afe706f00f00069ae2
:102680000928d4bf30305730192a04f1ff340ed84e
:1026900040f0200cacf1610cbcf1190f07d8cde96a
:1026a00008e1079301f077f8dde908e1079b0af8f4
:1026b0000400300940ea07704fea171c013d064646
:0426c00067469fe7e3
:020000040000fa
:1026c4002d4b00221a7403f500632c4a9a621a46b1
:1026d400536813f0100ffbd1294b4222c3f8842016
:1026e4001a46d2f8843013f0400ffad0254b00225a
:1026f4009a6377225a631a46d36b13f0040ffbd103
:10270400204b022283f830201a46d36b13f0020fb9
:10271400fbd11c4a136c03f00303032bfad11a4bad
:1027240001225a711a46d37813f0010ffbd0144bcf
:10273400164a1a621a46536813f0040ffbd1104b61
:10274400134a5a621a46536813f0080ffbd10c4b14
:102754004122c3f810211a46d2f8103113f0400f69
:10276400fad0094b6ff07f421a6140f2ff725a614e
:1027740004221a62704700bf0014004006013000b2
:10278400001c004000100040000800400701010048
:042794000701020037
:020000040000fa
:1027980053ec102bc3f30a512de9f04140f2fd70c0
:1027a8004e1e86421d4645d8a1f2ff30002835db73
:1027b800332831dc284bc0f120084ff0ff3c03fae6
:1027c80008f2a1f21f412cfa00fc10ee104a4cea64
:1027d800020c23fa01f24cea020c23fa00fe04ea86
:1027e8000c0605ea0e0724ea0c0256ea070425ea55
:1027f8000e030fd0002a73f100040bda4ff4801592
:1028080005fa08f425fa01f10c43121925fa00f02b
:1028180040eb030343ec102bbde8f081002a73f171
:10282800000303db9fed080bbde8f0819fed080b6b
:10283800bde8f0810029efd10a4603f0004343ecdc
:10284800102be9e7aff30080000000000000000053
:0c285800000000000000f0bfffff0f00b8
:020000040000fa
:10286400d80000201c00000000000000f40000203c
:102874000c0000000000000018010020010000000e
:10288400000000008c0000202c000000000000006c
:10289400000000203c0000000000000008010020af
:1028a40004000000000000003c0000205000000074
:1028b400000000000c0100200400000000000000e3
:1028c400b80000202000000001000000010000000a
:1028d40003000000000000000000000000000000f1
:1028e40000000000000000000001002000010020a2
:1028f4000800000000000000100100200400000097
:10290400000000001401002004000000000000008a
:1029140000000000000000002222222222222222a3
:020000040000fa
:102924002de9f041d2e900230c4686b007465fea60
:10293400d37820684968a5680590e66841d052427a
:1029440063eb4303002908db20f002000590b8f193
:10295400000f02d1059948072ad5691e05a80290df
:102964000a20cde90010204600f0c2f9b8f1000faa
:1029740002d1059b59071fd5b8f1000f00f1ff30b4
:1029840014bf2d232b2333542269059b0093013a52
:102994002b46121a3118384600f0eef87b68db0536
:1029a40003d563689842b8bf184606b0bde8f08105
:1029b4000807d2d42946d1e71a07e5d501382023e0
:0829c400e1e70029c0dac5e7d4
:020000040000fa
:1029cc00882930b534d012dc81293fd003dc802932
:1029dc003cd0002030bd82290ed08429f9d11c684e
:1029ec0054f8041b1c60f2b10ab2d3171de0a029e5
:1029fc0027d00cdc9029ecd11968073121f00701a4
:102a0c00f1e802451960c0e900450120e2e7c02960
:102a1c0001d0f029ddd11a68111d1960136803600b
:102a2c0000234360f1e78ab20023c0e90023ece7fe
:102a3c001c6854f8041b1c600ab14ab2d5e7cab230
:102a4c00f2e71a68111d19601268cee719680c1d9f
:102a5c001c600ab10a68c8e70b68c0e90032d4e709
:020000040000fa
:102a6c0008b5194b9847194b9847eff3108172b67c
:102a7c00174ad2f8883043f47003c2f88830bff399
:102a8c004f8fbff36f8f01b962b6124a936823f070
:102a9c00010393601346da6812f0010ffbd10d4b62
:102aac0024225a6001229a6000f01ef80a4b23f08f
:102abc007f03074a9360094b9847094b9847094b8a
:102acc00984700f02dfafee70b3800000b38000099
:102adc0000ed00e00060004100000000f52f000058
:082aec000b3800000b3800005c
:020000040000fa
:102af4001e4b1f4a9342f0b438bf002103d203f89f
:102b0400011b9342fbd11b4ad2e9000150ea0103a5
:102b14004ff0000610d09468034602f10c076cb91c
:102b240021b1014403f8016b9942fbd13a46d2e941
:102b3400000150ea0103eed1f0bc704759b101f134
:102b44000c030c38801a1a443b461c1813f8015b1a
:102b540025709342f9d111f0030318bf012303eb4d
:102b6400910107eb81073a46e1e700bf000000202e
:082b74003c0000206428000071
:020000040000fa
:102b7c002de9ff471d460c9b13f0010807468946bb
:102b8c00144624d1aa4222da2e1b102e32464ff0c4
:102b9c00200128bf10226846b24600f0c7fd0f2e58
:102bac001edc4fea1a136ff00f0202fb03a26946f8
:102bbc00384600f0affbb8f1000f04d1224649466d
:102bcc00384600f0a7fb284604b0bde8f087224643
:102bdc004946384600f09efbac42d5db2546f2e771
:0e2bec0010226946384600f095fb103ed7e7f0
:020000040000fa
:022bfa00704722
:020000040000fa
:102bfc002e2e2f2e2e2f2e2e2f6d6963726f636843
:102c0c0069702d4c6f52612d73656d746563682fff
:102c1c007372632f4c6f52612e6300007665727372
:102c2c00696f6e203d3d204c4f52415f53454d54d2
:102c3c004543485f56455253494f4e202626202285
:102c4c00756e737570706f727465642053454d5456
:102c5c004543482076657273696f6e22000000bf91
:0c2c6c004c6f5261426567696e0000bf4a
:020000040000fa
:102c7800842910b523d00cdc812903d0822913d0f4
:102c880080290bd119680c1d1c600b6803601a6041
:102c980013e0902921d003dc882917d0002010bd2b
:102ca800a029efd0c029ece719680c1d1c600b683f
:102cb8000360d1171046c3e900010120efe7196846
:102cc8000c1d1c600b6803601a80f6e719680c1d60
:102cd8001c600b6803601a70efe719680c1d1c6014
:0c2ce80009680160d317c1e90023e6e78a
:020000040000fa
:102cf4002de9f84f04460c9f6668d4f80cb024699b
:102d040010463a68013c002502f0020a0b9a0bf8bf
:102d14000450002e1946b8bf0126012390464feafd
:102d2400e279002c03dcd3b12046bde8f88f50eae9
:102d3400010209d1721b002a06dc0a9a521b002ade
:102d4400f1ddbaf1000feed042464b4600f072fbc3
:102d5400013c134630320bf804200135e1e73b68af
:082d640023f010033b60dfe7e0
:020000040000fa
:102d6c0030b587b00f4c4ff48025c4f8145100f0e7
:102d7c0087fc0d4b05930d4b04930d4b03930d4b9f
:102d8c0002930d4b01930d4b00930d4b0d4a0e49c5
:102d9c000e48fdf775fa0e48fdf7a0fac4f8185165
:102dac0007b030bd008000416932000029370000b7
:102dbc001937000009370000f93600007936000099
:102dcc0069340000e9360000a537000041230000fb
:042ddc008050de192c
:020000040000fa
:102de000f0b50c4649682368a768e56887b00029f4
:102df0000593a4bf23f00203059305ab02930823b8
:102e0000cde900730646d2e900232046fff772ffa2
:102e1000059bd90642bf00f1ff3030232b54059ba0
:102e20001a0742bf00f1ff3020232b542269059b73
:102e30000093013a3b46121a29183046fff79efece
:102e40007368db0503d563689842b8bf184607b0be
:022e5000f0bdd3
:020000040000fa
:022e5200fee799
:020000040000fa
:102e5400194ad36823f4e0631b041b0c43f0bf63db
:102e640043f40033d360bff35f8f62b6134be021aa
:102e740083f80b134ff40060186083f84613402066
:102e8400986083f847138020986083f848134ff4c0
:102e94008070986083f849134ff400719960536a05
:102ea40043f480235362536943f010035361536a1c
:102eb40043f400335362704700ed00e000e100e0aa
:020000040000fa
:102ec400174b08221a601a614ff00042c3f8902091
:102ed400012183f8d010002283f8d120062083f842
:102ee400df0083f8b82083f8bf200e48c3f8000140
:102ef4008030c3f8100183f8441183f8451183f836
:102f04004621052183f8471183f85221222183f8b1
:102f14003211202183f8331183f83921704700bf1f
:082f24000080004140000400a0
:020000040000fa
:102f2c00f0b585b0002000f0effafff719ff144d53
:102f3c004ff480263746c5f81471fdf7affd0446f3
:102f4c000020fdf73ffb22460e490df1020000f078
:102f5c0074fb00248df8004014238df80130684672
:102f6c0000f0ecfb411c6846fdf7a0fc2046fdf789
:102f7c004cfbc5f8186141f2883000f06ff9dae7c4
:082f8c0000800041b037000095
:020000040000fa
:102f9400f0b59db004460d4616460021542207a8fc
:102fa4001f4600f0c7fb4ff0ff33029303f20313f5
:102fb400039304b901accde9044555b16a1e002d53
:102fc400069208da094b4f221a604ff0ff301db009
:102fd400f0bd2a46f3e7002323703a46314602a89f
:102fe400cde9074400f012fbf1e700bf1401002013
:020000040000fa
:102ff4000e4a38b5002313600d4a0e4c13600e4a76
:103004000e4d13600e4a13600e4a13600e4a53624b
:1030140013610123936000f0adfb00f0f8fbac42b8
:1030240000d338bd54f8043b9847f8e7100100205a
:1030340048000020700200004400002074020000d8
:0c3044003c000020400000204c00002058
:020000040000fa
:103050002de9ff41134dd1f80080af88adf80c7019
:1030600006462868029002aca8798df80e00002a66
:1030700018bf1446d1e901571a461bb9204600f083
:1030800063fb0246002d02dbaa4228bf2a46cdf888
:1030900000803b4621463046fff770fd04b0bde896
:0830a000f08100bfec370000d5
:020000040000fa
:1030a800f0b50c4649682368a668e76887b0002928
:1030b8000593a4bf23f00203059305ab02930a23eb
:1030c800cde900630546d2e900232046fff70efe4e
:1030d8002269059b0093013a3346121a391828468b
:1030e800fff748fd6b68db0503d563689842b8bff6
:0630f800184607b0f0bd10
:020000040000fa
:0230fe00fee7eb
:020000040000fa
:10310000c1f30a5340f21e42d21a0edd202a0ad819
:10311000cb0243ea505040f00040d04090eae170ca
:10312000b0ebe1707047002070474b00004218bfc1
:1031300043f0010313f5001f88bf21f0004111f097
:0c314000004058bf6ff00040704700bf17
:020000040000fa
:10314c0001f000428b1aa3f16051b1f5801f0adb2c
:10315c00b1f17f6f09d242eac102c10071f10041a5
:10316c0042eb507070471046704701285b4113f5d5
:10317c00001f02d842f0ff407047c90041ea50706e
:0c318c00104340f4800040f08040704789
:020000040000fa
:10319800104b01221a801a46136913f0010ffbd154
:1031a8000c4b48f280621a801a46136913f4004fd8
:1031b800fbd1084b00221a621a46136913f0200f3c
:1031c800fbd1044b00225a621a46136913f0400fd0
:0831d800fbd170470024004008
:020000040000fa
:1031e00010b50278202a034600f10100f9d0a2f1bf
:1031f00009010429f5d92b2a07d02d2a11d1012143
:103200000133013b00200a2403e00021f8e760437a
:10321000801a13f8012f303a092af8d901b940422f
:0632200010bd0021ede7e6
:020000040000fa
:02322600fee7c1
:020000040000fa
:1032280010b5054c227832b9044b13b10448aff3fa
:1032380000800123237010bdd8000020000000008a
:103248000000000008b5034b1bb103490348aff366
:10325800008008bd00000000dc0000200000000025
:020000040000fa
:1032680070b40d4b5e681b6813f0010f12d00b4b46
:1032780003fb00f0084b9b6860b10021064c013647
:10328800a2689a4292bf9b1ab51a5b191944134651
:103298008842f5d870bc704710e000e0c0d4010047
:020000040000fa
:1032a8000b4b00221a621a779a60da60094b4ff4c6
:1032b80000325a601a46d369002bfcd1054b1d22f7
:1032c8001a73054a1a601a46d369002bfcd1704755
:0c32d8008c000020000800430e003000b5
:020000040000fa
:1032e4004ff4001c1ceb410f98bf1ceb430f11d88b
:1032f40051ea030c50ea4c0c5cea020c0cd004d2e8
:1033040082428b4180410130704790429941804113
:0c33140001307047002070470120704716
:020000040000fa
:1033200038b5436813f4807f0446154610d003690e
:1033300040699a4228bf1d462a4600f091f9626909
:103340005319636123695b1b23610023535538bd07
:0a335000db06fcd400f054faf9e7a4
:020000040000fa
:02335a00fee78c
:020000040000fa
:10335c004ff4001c1ceb410f98bf1ceb430f11d812
:10336c0051ea030c50ea4c0c5cea020c0ad004d271
:10337c0082428b418041404270479042994180414a
:08338c00404270470020704729
:020000040000fa
:103394004ff4001c1ceb410f98bf1ceb430f11d8da
:1033a40051ea030c50ea4c0c5cea020c0ad004d239
:1033b4009042994180414042704782428b41804112
:0833c4004042704700207047f1
:020000040000fa
:1033cc0030b50c4a002312f8134024b902eb430326
:1033dc005b78184630bd01680d78a54209bf02eb39
:1033ec00430301335b78013114bfdbb201600a2b5c
:0833fc00e9d9eee7f435000009
:020000040000fa
:103404004ff4001c1ceb410f98bf1ceb430f0cd86e
:1034140050ea410c08bf52ea430c08d0904208bf5e
:1034240099420cbf01200020704700207047012002
:04343400704700bf1e
:020000040000fa
:1034380053b94ab9002908bf00281cbf4ff0ff3113
:103448004ff0ff3000f0deb9adf1080c6de904cea5
:10345800fef75cfbddf804e0dde9022304b0704709
:020000040000fa
:10346800084b9a68db6813430ad0074b1b7e13f09e
:10347800020f1abf034b187f012000f001007047ac
:0c348800002070478c000020000800436a
:020000040000fa
:1034940000b553ec112b83b051ec100b8ded002bc8
:1034a400fef7e4ff9ded002b53ec122bfef78efc90
:0c34b40041ec100b03b05df804fb00bffe
:020000040000fa
:1034c000802910db812901dd83290cd113680733a2
:1034d00023f0070303f108011160d3e90023c0e9d9
:0a34e0000023012070470020704710
:020000040000fa
:0234ea00fee7fb
:020000040000fa
:1034ec0008b5074b988980b2064a50604cf2ff3100
:1034fc0099819b8913680bb19168984708bd00bfef
:08350c0000240040f40000203f
:020000040000fa
:1035140008b500f0dff8fff7d3fcfff7d1f800f0af
:10352400d1f8fff768fbfff7bdfe00f053f8fff793
:0835340031fefff78dfc08bd1c
:020000040000fa
:10353c0078b110f0004248bf4042120d02f21d4219
:10354c00b0fa80f18840521ac30a400503eb0251cd
:08355c0070470100704700bf39
:020000040000fa
:1035640007b5074c2468cde900320b4602460549ed
:10357400206800f059f8002000f006f800f02cf95b
:08358400d4000020b435000062
:020000040000fa
:10358c0010b550b9074b1c681cb11868fff7f8ff51
:10359c000446fdf789fc204310bd002100f02df9f5
:0835ac00fae700bf0c0100204a
:020000040000fa
:1035b400417373657274696f6e206661696c6564ca
:1035c4003a202573202825733a2025733a20256450
:0335d400290a00c1
:020000040000fa
:1035d800044b00221a609a60034a5a6004221a6057
:0c35e800704700bf10e000e0bfd40100fd
:020000040000fa
:1035f40068076c094c836a9074a07ac0008068885c
:0c36040000846c820081286e696c290033
:020000040000fa
:1036100013b50446019201aafef702f9636813f09c
:0c362000100f18bf4ff0ff3002b010bdbb
:020000040000fa
:10362c000eb403b503aa52f8041b0192fff7eaff8c
:0a363c0002b05df804eb03b0704724
:020000040000fa
:103646000eb403b503aa52f8041b019200f0b9f8b0
:0a36560002b05df804eb03b070470a
:020000040000fa
:1036600010b5431e0a44914200d110bd11f8014b20
:0636700003f8014ff7e72b
:020000040000fa
:02367600fee76d
:020000040000fa
:10367800034b187e80f00200c0f34000704700bf83
:0436880000080043f3
:020000040000fa
:10368c00034b00229a601a6842f001021a607047dc
:04369c0010e000e05a
:020000040000fa
:1036a00008b500f09ff8024b1860586008bd00bfd5
:0436b00000010020f5
:020000040000fa
:1036b400034611f8012b184603f8012b002af8d110
:0236c40070474d
:020000040000fa
:0236c600fee71d
:020000040000fa
:1036c800024b4ff48022c3f8182170470080004154
:020000040000fa
:1036d800024b40f204521a80704700bf004000417c
:020000040000fa
:1036e80008b50b46024600210846fef725fe08bd30
:020000040000fa
:1036f800024b4022c3f81421704700bf00800041ec
:020000040000fa
:10370800024b4022c3f81821704700bf00800041d7
:020000040000fa
:10371800024b4ff40032c3f89420704700800041f8
:020000040000fa
:10372800024b4ff40032c3f89820704700800041e4
:020000040000fa
:1037380002440346934200d1704703f8011bf9e79e
:020000040000fa
:1037480003461a46013311780029fad1101a704736
:020000040000fa
:10375800494e4600696e66004e414e006e616e002d
:10376800494e4600696e66004e414e006e616e001d
:020000040000fa
:1037780008b500f04bf8fff78fff00f047f808bdd9
:020000040000fa
:0e378800a0f14103192b98bf40f020007047bc
:020000040000fa
:0e379600a0f16103192b98bf00f05f0070478f
:020000040000fa
:0c37a40008b500231a46fef7c9fd08bd59
:020000040000fa
:0c37b00068656c6c6f20256c750d0a00bc
:020000040000fa
:0c37bc0010b50446fff778ff204610bd52
:020000040000fa
:0c37c80013460a466ff00041fff7e0bb1b
:020000040000fa
:0837d40083f00043fef7faba8e
:020000040000fa
:0837dc0008b57f2000f00bf896
:020000040000fa
:0837e40000487047b800002006
:020000040000fa
:0737ec00286e756c6c2900ca
:020000040000fa
:0637f4004ff0ff307047aa
:020000040000fa
:0637fa0008b500f008f81c
:020000040000fa
:063800000068fff7f7bfae
:020000040000fa
:0438060000207047e7
:020000040000fa
:02380a00704705
:020000040000fa
:04380c00704700bf42
:020000040000fa
:02381000fee7d1
:020000040000fa
:043812007047704744
:020000040000fa
:0200000400807a
:044000003912003c35
:020000040000fa
:0200000400807a
:044004008000a82a66
:020000040000fa
:0200000400807a
:04400800ffffffffb8
:00000001FF
